:020000040800F2
:10000000805B0120B10100087F2200084D2100081B
:100010007D220008850F000831270008000000003D
:100020000000000000000000000000008322000823
:10003000C10F0008000000008122000819230008F9
:10004000CB010008CB010008CB010008CB01000860
:10005000CB010008CB010008CB010008CB01000850
:10006000CB010008CB010008CB010008CB01000840
:10007000CB010008CB010008CB010008CB01000830
:10008000CB010008CB010008CB01000800000000F4
:10009000000000000000000000000000CB0100088C
:1000A000CB010008CB010008CB010008CB01000800
:1000B000CB0100087D230008CB010008CB0100081C
:1000C000CB010008CB010008CB010008CB010008E0
:1000D000CB010008CB010008CB01000800000000A4
:1000E000CB010008CB010008CB0100080000000094
:1000F000000000000000000000000000CB0100082C
:1001000000000000CB010008CB010008CB01000873
:1001100000000000000000000000000000000000DF
:10012000CB010008CB010008CB010008CB0100087F
:10013000CB010008000000000000000000000000EB
:10014000000000000000000000000000CB010008DB
:10015000CB010008CB010008CB010008CB0100084F
:10016000CB010008CB0100080000000000000000E7
:10017000000000000000000000000000000000007F
:1001800000000000CB01000800000000000000009B
:10019000CB010008CB010008DFF810D000F0C0FD53
:1001A00000480047E14B0008AFF30080805B01206E
:1001B0000648804706480047FEE7FEE7FEE7FEE701
:1001C000FEE7FEE7FEE7FEE7FEE7FEE71D23000889
:1001D000990100089FED3D0A5FEA920C57D000BFDD
:1001E000D0ED000A90ED011A0B1D60EEA00A083058
:1001F00041EE010AF5EEC00AF1EE10FAA6BFB1EE2B
:10020000E01A81ED001A81ED000AD0ED000A90EDB0
:10021000011A191D60EEA00A083041EE010AF5EE40
:10022000C00AF1EE10FAA6BFB1EEE01A83ED001A93
:1002300083ED000AD0ED000A90ED011A0B1D60EE6F
:10024000A00A083041EE010AF5EEC00AF1EE10FAFC
:10025000A6BFB1EEE01A81ED001A81ED000A90ED23
:10026000001AD0ED010A191D21EE011A083000EE26
:10027000A01AB5EEC01AF1EE10FAA6BFF1EEC10A4F
:10028000C3ED000A83ED000ABCF1010CA8D112F005
:10029000030208BF704700BFD0ED000A90ED011ABD
:1002A0000B4660EEA00A091D083041EE010AF5EE8A
:1002B000C00AF1EE10FAA6BFB1EEE01A83ED001A03
:1002C00083ED000A521EE7D17047000000000000D5
:1002D0002DE9F00F5FEA510C32D0044600EBCC055B
:1002E00016466746D4ED012A95ED012AD4ED001A91
:1002F00095ED001A32EEC20A32EE222A71EEC10AE0
:10030000D6ED003AD6ED012A31EE811A23EEA03A5D
:1003100022EE804A23EE800A62EEA00A84ED001AE3
:1003200033EE041A84ED012A30EE600A85ED001ADE
:10033000083485ED010A083506EBC3067F1ED1D1CE
:100340004FF6FF7A0AEA430BE146BCF1020F44D9AB
:1003500066464FF000084FEA5C0C444602EBC803C7
:10036000D84493ED001AD3ED010A234603EB0C07A2
:1003700000EBC30500EBC707D5ED001A97ED000AA7
:1003800095ED012AD7ED012A31EE803A31EEC00A0F
:1003900072EE621A72EE822A85ED003A20EE012A90
:1003A00061EEA03A61EE811A20EE200AC5ED012A25
:1003B00032EE232A334431EEC00A87ED002A8B4205
:1003C00087ED010AD2D3641CA445C7D84FEA590966
:1003D0000AEA4B0BB9F1020FBAD8002919BF491C20
:1003E0005FEA5101BDE8F00F704700BF90ED002AB1
:1003F000D0ED021A90ED011AD0ED032A32EE610A17
:1004000072EE211A71EE620A32EE811AC0ED001A04
:1004100080ED011A80ED020AC0ED030A1030491E7A
:10042000E4D1BDE8F00F70472DE9F00F5FEA510904
:10043000CC4633D0044600EBCC0516464FEA0907FC
:1004400094ED002AD5ED001A94ED013AD5ED012A7C
:1004500072EE610AD6ED004A33EE621AD6ED013A29
:1004600072EE832A24EEA03A23EE814A72EE211A1C
:1004700024EE811A63EEA00AC4ED001A73EE441A4A
:10048000C4ED012A71EE200AC5ED001A0834C5ED4D
:10049000010A083506EBC3067F1ED1D14FF6FF7A5D
:1004A0000AEA430BB9F1020F45D967464FF000083D
:1004B0004FEA5C0C4FEA080502EBC803D844D3EDC1
:1004C000001A93ED011A2B4603EB0C0400EBC30654
:1004D00000EBC40496ED002AD4ED000A96ED013A33
:1004E000D4ED012A72EE203A72EE600A33EE622AEF
:1004F00032EE834AC6ED003A60EEA12A22EE013ABE
:1005000022EE212A60EE810A86ED014A72EEC32AAC
:100510003B4472EE200AC4ED002A8B42C4ED010A6E
:10052000D2D36D1CAC45C7D84FEA59090AEA4B0B28
:10053000B9F1020FB9D8002919BF491C5FEA51016E
:10054000BDE8F00F704700BFD0ED002A90ED022A01
:1005500090ED031A90ED013A72EEC20A32EE822A51
:1005600060EE801A71EE030A33EE411A22EE002A81
:1005700060EE800A21EE001A80ED002AC0ED010A2B
:10058000C0ED021A80ED031A1030491EDCD1BDE81F
:10059000F00F704770B504460D4680782188A38916
:1005A000626801280ED02846FFF792FEE078012805
:1005B00018BF70BDE28921882846A368BDE8704055
:1005C00000F0A0B894ED040A2846FFF72DFFEDE7F0
:1005D00010B40180384C446082704FF0000CC3703E
:1005E000B1F5807F3AD008DC102959D020294DD0B0
:1005F000402943D0802939D00BE0B1F5007F25D0C8
:10060000B1F5806F1AD0B1F5006F0FD0B1F5805FF2
:1006100004D04FF0FF3C10BC60467047012181813F
:10062000C18126499FED260A816036E00221818141
:10063000C18124499FED240A81602EE0042181813B
:10064000C18122499FED220A816026E00821818133
:10065000C18120499FED200A81601EE01021818127
:10066000C1811E499FED1E0A816016E02021818113
:10067000C1811C499FED1C0A81600EE040218181EF
:10068000C1811A499FED1A0A816006E080218181AB
:10069000C18118499FED180A816080ED040ABAE70C
:1006A0004FF480718181C18114499FED150A8160E9
:1006B00080ED040AAFE70000BCCD0308BCC5030809
:1006C00000008039BEC503080000003AC2C5030817
:1006D0000000803ACAC503080000003BDAC50308E1
:1006E0000000803BFAC503080000003C3AC603083E
:1006F0000000803CBAC603080000003DBAC70308EA
:100700000000803D2DE9F0014E0801244FF0000C5F
:1007100004EB51076146A6F102082CE061452AD29C
:1007200000EBCC0500EBC104D5ED000A94ED000A06
:10073000C4ED000A85ED000AD5ED010A94ED010A29
:10074000C4ED010A85ED010ACC1900EBC4050CEBE0
:10075000070400EBC40495ED000AD4ED000AC5EDD2
:10076000000A84ED000AD4ED010A95ED010AC5EDF9
:10077000010A84ED010A00EBC104B44400EBCC0C87
:1007800094ED020ADCED000A891CC4ED020A8CED2E
:10079000000ADCED010A94ED030AC4ED030A8CEDB6
:1007A000010AB3F800C089B203EB42034145B5D951
:1007B000BDE8F00170472DE9F0074D0801244FF026
:1007C000000C04EB51066146A5F102082BE06145DF
:1007D00029D250F8314050F83C7040F8317040F860
:1007E0003C4000EBC10900EBCC04D9F80470D4F80C
:1007F00004A0C9F804A067608C190CEB060750F838
:10080000349050F837A040F834A040F8379000EB0F
:10081000C40400EBC707D4F80490D7F804A0C4F8C8
:1008200004A0C7F8049000EBC104AC44A76850F8DA
:100830003C90C4F8089040F83C7000EBCC0CE768A2
:10084000DCF80490C4F80C90CCF80470B3F800C045
:10085000891C03EB42034145B9D9BDE8F007704755
:100860002DE9F00F01244F0804EB51084FF0000C64
:100870007C0804BFBDE8F00F7047014600EB880517
:10088000002614E0BCEB460F11D950F82CA0D1F88B
:100890000090C1F800A040F82C900CEB0809D5F8A6
:1008A00000A050F829B0C5F800B040F829A0BC4419
:1008B00051F8049F50F82CA041F804AB40F82C905C
:1008C000B3F800C003EB4203641E05F1080506F10E
:1008D0000106D7D1BDE8F00F70472DE9F05F05465E
:1008E000002092469B4688460646814640241BE0EF
:1008F000284641464746224600F08AF853465A4663
:10090000C01A914110D311461846224600F071F8E2
:100910002D1A67EB01084F4622460120002100F006
:1009200068F817EB00094E41201EA4F10104DFDC3A
:10093000484631462A464346BDE8F09F40EA010357
:100940009B0703D009E008C9121F08C0042AFAD285
:1009500003E011F8013B00F8013B521EF9D2704749
:10096000D2B201E000F8012B491EFBD270470022F1
:10097000F6E710B513460A4604461946FFF7F0FF9E
:10098000204610BD30B504460020034600E05B1C45
:10099000934203D2E05CCD5C401BF8D030BD0EB575
:1009A000C10F80EAE0700844CA07002140F23343D7
:1009B0008DE80E000A460B4600F049F803B000BD72
:1009C000C1F30A5210B5C1F3130140F2FF3341F4F1
:1009D00080119A4201DA002010BD40F233439A425E
:1009E000A2F2334203DC524200F012F810BD9040F4
:1009F00010BD202A04DB203A00FA02F100207047E3
:100A00009140C2F1200320FA03F31943904070474C
:100A1000202A04DB203A21FA02F00021704721FA53
:100A200002F3D040C2F120029140084319467047BA
:100A300010B5141E73F1000408DA401C41F10001E6
:100A400092185B411A4301D120F0010010BD2DE93D
:100A5000F04D92469B4611B1B1FA81F202E0B0FA34
:100A600080F220329046FFF7C4FF04460F4640EA6A
:100A70000A0041EA0B0153465A46084313D0114677
:100A800053EA010019D0C8F140025046FFF7C0FFF9
:100A900005460E46504659464246FFF7AAFF084310
:100AA00005D0012004E020463946BDE8F08D002045
:100AB000054346EAE0762C4337430A986305E40A87
:100AC000A0EB08000022FD0A44EA47540A3002D590
:100AD00000200146E9E7010510196941DDE90845F3
:100AE00000196941BDE8F04DA2E72DE9FE4F8046AF
:100AF00081EA0300C00F0C46009021F0004123F072
:100B00000045B8EB0200A94105D240462146904677
:100B10001C460B46024623F00040104347D0270DE9
:100B2000C7F30A00C3F30A510290401A019040280B
:100B30006BDAC3F3130040F4801B0098924620B197
:100B40000023D2EB030A63EB0B0B01985946C0F16B
:100B500040025046FFF74DFF06460D4650465946A7
:100B6000019A00F0EFF810EB08006141002487EAD9
:100B7000115284EAE7731A4340D0009A62B3019A93
:100B8000012A4FEA075215DC001B61EB02014FF00E
:100B9000004202EA0752CDE90042001C41F58011F3
:100BA00032462B46FFF753FF03B0BDE8F08F4046B7
:100BB0002146F9E7001B61EB0201001C41F580139F
:100BC00000185B412018A2F5001747EB030140EA2B
:100BD000D570B6196D4111E06D084FEA360645EA49
:100BE000C0754FEA0752001B61EB0201001C41F582
:100BF000801149084FEA30000019514132462B4616
:100C000003B0BDE8F04FFFF713BF0098012240008A
:100C10000023D0EB020263EBE073009821464FEA19
:100C2000E074B8EB000061EB0401E9E783F00043F6
:100C30005BE781F0004158E72DE9F041054621F0DE
:100C400000400C46284309D0C4F30A5040F2334117
:100C5000884205DD28462146BDE8F0812846FBE7AD
:100C600040F2FE31884210DC0CDB4FEA043040EAEF
:100C7000155050EA053105D0104804F000410143F9
:100C80000020E9E700200146E6E7A0F233404642B3
:100C9000C6F1400228462146FFF7ABFE07468846CC
:100CA000284621463246FFF7B3FE43463A46FFF751
:100CB000BFFE3246BDE8F041FFF79BBE0000F03FAB
:100CC00030B5041E71F1000404DB4FF000444042D3
:100CD00064EB0101141E73F1000405DB1C464FF0A8
:100CE0000043524263EB04038B4208BF824230BD93
:100CF00030B5041E71F1000404DB4FF000444042A3
:100D000064EB0101141E73F1000405DB1C464FF077
:100D10000043524263EB0403994208BF904230BD46
:100D2000064C074D06E0E06840F0010394E8070038
:100D300098471034AC42F6D3FFF732FA044E040859
:100D4000244E0408202A06DBCB17203A41FA02F091
:100D500043EAE07306E041FA02F3D040C2F1200218
:100D6000914008431946704770B58C1810F8015B24
:100D700015F0070301D110F8013B2A1106D110F834
:100D8000012B03E010F8016B01F8016B5B1EF9D138
:100D90002B0705D40023521E0DD401F8013BFAE7BE
:100DA00010F8013BCB1A921C03E013F8015B01F829
:100DB000015B521EF9D5A142D8D3002070BD0000BE
:100DC000464910B54A6822F440324A604A6843688E
:100DD0001A434A6001684A6822F480724A600168D6
:100DE0004A68036942EA03224A6001684A6822F0BD
:100DF00040724A6001684A6883681A434A60016821
:100E00008A6822F400628A6001688A68C3681A43AB
:100E10008A60816A6FF07062D14201688A6822F04C
:100E200070628A6001688A680CD0836A1A438A609B
:100E300001688A6822F040528A6001688A68C36A41
:100E40001A4301E022F040528A6001688A6822F069
:100E500002028A6001688A68037E42EA43028A606D
:100E600090F82010002901684A680FD042F400620F
:100E70004A6001684A6822F460424A6001684A6830
:100E8000174C436A04EB43331A4301E022F4006237
:100E90004A600168CA6A22F47002CA620168CA6ABA
:100EA000838B104C04EB03531A43CA6201688A68AF
:100EB00022F400728A6001688A6890F8303042EA51
:100EC00043228A6001688A6822F480628A6001682D
:100ED0008A68406942EA8020886010BD0023014092
:100EE00000E0FFFF0000F0FF70B50122084D540242
:100EF0002146284600F028FB4FF4FA7002F078FFF4
:100F000021462846BDE87040002200F01DBB0000CD
:100F10000004024070B50122074D540221462846C4
:100F200000F012FB322002F063FF21462846BDE8A4
:100F30007040002200F008BB0004024070B501229E
:100F40000F4D54022146284600F0FEFA322002F0EE
:100F50004FFF00222146284600F0F6FA322002F028
:100F600047FF01222146284600F0EEFA322002F027
:100F70003FFF21462846BDE87040002200F0E4BA59
:100F800000040240FEE700000948016821F0010169
:100F9000016008480121816081680029FCD106496F
:100FA000016000680549884200D0FEE770470000F4
:100FB000002000E000300240C2A507F4CDB5E8B53E
:100FC000704770471FB569460090012001900720C7
:100FD000029000200390084800F010F8064800F046
:100FE00065F90A21044800F00FF9034800F0B8F849
:100FF00004B080B210BD0000D84B002078B50024AA
:10100000009490F83C20012A19D0012280F83C205D
:101010000A6807230568092A13D9EE680A3A02EB21
:10102000420293409E43EE600B788A680A3B03EBD2
:1010300043039A400368DD682A43DA6010E0022027
:1010400078BD2E6902EB420293409E432E610B78DD
:101050008A6803EB43039A4003681D692A431A61B7
:101060004A681F23072A13D205686E6B521E02EBD3
:10107000820293409E436E630A8893B20A79521E9D
:1010800002EB820293400268556B2B43536327E0C7
:1010900005680D2A12D22E6BD21F02EB82029340FA
:1010A0009E432E630B790A88DB1F92B203EB830306
:1010B0009A4003681D6B2A431A6311E0EE6A0D3AE9
:1010C00002EB820293409E43EE620B790A880D3B4D
:1010D00092B203EB83039A400368DD6A2A43DA6223
:1010E0001B4B0568194A9D420AD10D68122D07D184
:1010F000556825F400055560556845F48005556030
:1011000005689D421DD1134D0B68AB4201D0112BD8
:1011100017D1536823F480035360536843F40003EA
:1011200053600968A9420CD10B490C4A0968B1FB0C
:10113000F2F101EB8101490000E0491E0091002914
:10114000FBD180F83C40002078BD00000023014026
:101150000020014012000010C84B002040420F0048
:101160000068C06C704770B504004FF0000503D0F4
:10117000206C002610B107E0012070BD204600F071
:101180001DF8666484F83C60206CC00610D4206CA6
:1011900020F4885040F0020020642046FFF710FE43
:1011A0006664206C20F0020040F00100206400E042
:1011B000012584F83C60284670BD0000104800B549
:1011C000026887B0002142F480720260006800F477
:1011D000807005900A481438026842F001020260EB
:1011E000006800F001000590202000900320CDE968
:1011F00001016946034800F0DDF807B000BD0000BA
:1012000044380240000002402DE9F04104460068E5
:101210000D4681684FF0000749050BD58068C00571
:1012200008D5206C40F02000206484F83C70012038
:10123000BDE8F08100F094F906460FE0681C0DD07F
:1012400025B100F08DF9801BA84207D9206C40F031
:101250000400206484F83C700320E9E720680068FB
:101260008007EBD521686FF012000860206C40F415
:10127000007020642068816811F0405F13D1217EE6
:1012800089B9C16A11F4700F02D0806840050AD490
:10129000206C20F480702064206CC00403D4206C87
:1012A00040F0010020640020C2E7000018B50021D2
:1012B000009190F83C20012A07D0012280F83C20C0
:1012C00002689368DB0702D011E0022018BD936822
:1012D00043F001039360204A204B1268B2FBF3F203
:1012E00002EB420200E0521E0092002AFBD102688B
:1012F0009368DB072DD0036C40F20164A34343F4F1
:101300008073036453685B0505D5036C23F40053B5
:1013100043F480530364036CDB0404D5436C23F073
:101320000603436400E0416480F83C100C496FF010
:101330002203136049680068C90602D0094988423F
:1013400007D1816811F0405F03D1816841F080418D
:101350008160002018BD0000C84B002040420F00F3
:10136000002301400020014010B5040002D0607944
:1013700010B106E0012010BD00202071204600F0D1
:1013800005F801206071002010BD000008B500685C
:101390000649884208D10648016841F4805101603D
:1013A000006800F48050009008BD0000003002404A
:1013B000303802402DE9F84F00224FF00108032594
:1013C0004FF00F0E0B6808FA02F42340A34271D1CC
:1013D0004E68012E05D0022E03D0112E01D0122E00
:1013E00015D18668570005FA07FC26EA0C06D1F8E5
:1013F0000CC00CFA07FC4CEA060CC0F808C04668A2
:10140000A6430C79C4F30014944034434460C66886
:10141000570005FA07FC8C6826EA0C06BC403443EA
:10142000C4604C68022C01D0122C13D1D40800EBFC
:101430008404A346D4F8209054074FEAD46A0EFAE5
:101440000AF629EA06090E6906FA0AF646EA0906C4
:10145000CBF8206004680E7924EA0C0406F0030639
:10146000BE40264306604C68E40056D52E4C2668E4
:1014700046F480462660246822F0030604F4804483
:1014800000942A4C3444A446D4F808489607370FF1
:101490000EFA07F6B443264EB04201D1002615E0FD
:1014A000244EB04201D1012610E0234EB04202D1B9
:1014B00002260BE031E0214EB04201D1032605E0C7
:1014C0001F4EB04201D1042600E00726BE4026434D
:1014D000CCF808681B4E34684F689C43FF0300D566
:1014E0001C433460174E361D34684F689C43BF035D
:1014F00000D51C433460134E083634684F689C4353
:10150000FF0200D51C4334600E4E0C3634684F6821
:101510009C43BF0200D51C433460521C102AFFF4C8
:1015200051AFBDE8F88F0000443802400030014060
:10153000000002400004024000080240000C02408B
:1015400000100240003C01400AB18161704709046B
:10155000FBE7000001480068000C7047002004E031
:101560000148806870470000BC4B00200248816839
:101570000278114481607047BC4B00200B4810B5C5
:10158000016841F400710160016841F4806101600B
:10159000016841F480710160032000F06FF80020C1
:1015A00000F006F800F024F8002010BD003C0240D6
:1015B00070B50D4D04464FF47A712878B1FBF0F008
:1015C0000A490968B1FBF0F000F010FB48B9102C93
:1015D00007D200222146501E00F030F800206C6037
:1015E00070BD012070BD0000BC4B0020C84B002026
:1015F0000A4808B5016841F480410160006800F4C0
:10160000804000900548001F016841F08051016052
:10161000006800F08050009008BD0000443802408F
:10162000002809DB00F01F020121914040098000E1
:1016300000F1E020C0F8001170470000F0B40E4B3C
:101640001B680C46C3F30223C3F10705042D00D920
:101650000425191D072901D2002300E0DB1E012605
:1016600006FA05F1491E214099409E40761E16401B
:101670003143F0BC01F070B80CED00E0064900F019
:10168000070208684FF6FF03184040EA0220034AA9
:1016900010430860704700000CED00E00000FA0500
:1016A0002DE9F0470E46050065D0DFF81481D8F823
:1016B0000000F7B200F00F00B04207D288F80070C7
:1016C000D8F8000000F00F00B04254D128683D4C1B
:1016D000810712D5400703D5206840F4E050206010
:1016E0002878000703D5206840F460402060206817
:1016F000A96820F0F000084320602878C0072DD0AA
:10170000304968680839012812D0022813D003280C
:1017100011D00968890700292DDA216821F0030119
:1017200001432160FFF71CFF814641F2883A0EE039
:1017300009688903EFE709688901ECE7FFF710FF03
:10174000A0EB0901514502D90320BDE8F0872068CC
:10175000696800F00C00B0EB810FEFD1D8F80010F1
:10176000404601F00F01B14207D90770006800F050
:101770000F00B04201D00120E7E72878400705D5E7
:101780002068E96820F4E0500843206028780007CA
:1017900006D52068296920F4604040EAC100206035
:1017A00000F038F82168084AC1F30311515CC840C1
:1017B0000649086006480068FFF7FAFE0020C4E703
:1017C000003C024008380240A4C40308C84B002073
:1017D000C04B00200448054900680968044AC1F369
:1017E0008221515CC8407047C84B00200838024035
:1017F000B4C403080448054900680968044AC1F3F1
:101800004231515CC8407047C84B00200838024044
:10181000B4C40308154810B5006810F00C02144851
:1018200013D01449042A0FD0082A0ED10F4C241FBC
:101830002268236802F03F025B0207D52068C0F3EC
:101840008810A0FB010106E0084610BD2168C1F325
:101850008811A1FB00010023FFF73FF82168C1F3C5
:101860000141491C4900B0FBF1F010BD08380240AD
:101870000024F40040787D012DE9F84F04006ED07B
:101880002078DFF83C93C007A9F104054AD009F19C
:1018900004000168C1F38101012908D00068C0F388
:1018A000810002280AD1D9F80000400206D5286834
:1018B000800337D560680028E1D033E06068B0F578
:1018C000803F10D0B0F5A02F286810D020F48030D1
:1018D0002860286820F4802028606068A8B1FFF79D
:1018E0003FFE06460DE0286840F48030F4E740F4FF
:1018F00080202860F7E700BFFFF732FE801B6428D6
:1019000073D828688003F7D50CE0FFF729FE064658
:1019100005E000BFFFF724FE801B6428F0D828688C
:101920008003F7D42078DFF89C8280074FF0000A0C
:101930003ED5A348001D016811F00C0F08D00068C7
:10194000C0F3810002280BD1D9F80000400207D46F
:101950002868800716D5E068012800D112E02BE145
:10196000E068B8B10120C8F80000FFF7F9FD0646AD
:1019700005E000BFFFF7F4FD801B0228C0D82868EF
:101980008007F7D52868216920F0F80040EAC100F7
:1019900028600DE0C8F800A0FFF7E2FD064604E06D
:1019A000FFF7DEFD801B02281FD828688007F7D4C8
:1019B0002078000722D5824E83486169703671B164
:1019C00001210160FFF7CCFD074604E0FFF7C8FDE9
:1019D000C01B022809D830688007F7D50EE0C0F890
:1019E00000A0FFF7BDFD074605E082E0FFF7B8FD68
:1019F000C01B02287DD830688007F7D420784007C4
:101A000068D5DFF8BCB100270BF13C0BDBF8000018
:101A1000C0000BD4DBF8001041F08051CBF800106F
:101A2000DBF80000012700F080500090674E30681E
:101A3000C00510D4306840F480703060FFF790FD2E
:101A4000009005E0FFF78CFD0099401A022850D85D
:101A50003068C005F6D55A4EA0686C3601280FD004
:101A60000528306810D020F001003060306820F088
:101A700004003060A068B8B1FFF772FD00900FE07D
:101A8000306840F00100F4E740F004003060F7E710
:101A9000FFF766FD0099411A41F28830814266D80D
:101AA00030688007F4D50EE0FFF75AFD009007E09C
:101AB000FFF756FD0099411A41F28830814256D80D
:101AC00030688007F4D42FB1DBF8001021F080518A
:101AD000CBF80010A069C8B33949091D0968C1F3E2
:101AE000810102294AD00228504607D0C8F8600078
:101AF00000E03CE0FFF734FD04463BE04746C8F811
:101B00006000FFF72DFD064605E000BFFFF728FD4A
:101B1000801B02282BD828688001F7D4D4E907015C
:101B20000843A16A2A4A490802EB0141626A41EA74
:101B30008211084394F82C1040EA0161C9F80010A2
:101B400001203866FFF70CFD044606E036E000BFD2
:101B5000FFF706FD001B022809D828688001F7D589
:101B60002CE000BFFFF7FCFC001B022802D9032079
:101B7000BDE8F88F28688001F4D41FE00128F7D071
:101B8000D9F80000E26900F48001914214D1226A80
:101B900000F03F0191420FD147F6C071626A0140E7
:101BA000914209D1A26A00F44031914204D1E16A24
:101BB00000F07060884201D00120D9E70020D7E70B
:101BC0000438024000004742800E47420070004047
:101BD0000000FFFF4FF0E0210428086903D020F047
:101BE00004000861704740F00400FAE710B5401E99
:101BF000B0F1807F01D3012010BD4FF0E02460617F
:101C00000F21601700F0A8FD0020A06107202061CF
:101C1000002010BD7047704710B5040003D094F841
:101C20003D0010B107E0012010BD002084F83C0009
:101C3000204600F00DF8022084F83D00211D2068A8
:101C400000F0DAFB012084F83D00002010BD000008
:101C500008B500680B49884212D10B48016841F071
:101C6000020101600068032200F0020000900121DF
:101C70001D20FFF7E3FCBDE808401D20FFF7D0BCA6
:101C800008BD000000040040403802400168CA68F6
:101C900042F00102CA600068816801F0070106296C
:101CA00003D0016841F001010160002070477047D6
:101CB00070B50446006801694FF00005C943890703
:101CC00015D4C168C943890711D4E91E01610120F7
:101CD0002077206880698007204602D0FFF7E7FF61
:101CE00004E000F098F8204600F056F925772068C7
:101CF0000169C943490717D4C168C943490713D4C7
:101D00006FF004010161022020772068806910F4DF
:101D1000407F204602D0FFF7CAFF04E000F07BF8C6
:101D2000204600F039F9257720680169C943090781
:101D300016D4C168C943090712D46FF008010161C4
:101D4000042020772068C0698007204602D0FFF772
:101D5000AEFF04E000F05FF8204600F01DF92577A3
:101D600020680169C943C90617D4C168C943C906B7
:101D700013D46FF010010161082020772068C0693A
:101D800010F4407F204602D0FFF791FF04E000F0FE
:101D900042F8204600F000F9257720680169C94320
:101DA000C90708D1C168C943C90704D1891E0161A7
:101DB000204600F00FF920680169C943090609D4DB
:101DC000C168C943090605D46FF08001016120464E
:101DD000FFF720FF20680169C943490609D4C1689B
:101DE000C943490605D46FF040010161204600F067
:101DF00045F920680169C94389060BD4C168C94304
:101E0000890607D46FF0200101612046BDE87040CB
:101E1000FFF701BF70BD704770B5044690F83C00F5
:101E20000D4601280DD0012684F83C60022084F87C
:101E30003D0042B1042A18D0082A2AD00C2A4DD1DC
:101E400039E0022070BD206800F030FB2068816915
:101E500041F0080181612068816921F004018161FC
:101E6000206881692A69114311E0206800F046FB6F
:101E70002068816941F4006181612068816921F4F1
:101E800080618161206881692A6941EA022181615A
:101E900024E0206800F05EFB2068C16941F0080181
:101EA000C1612068C16921F00401C1612068C16974
:101EB0002A69114311E0206800F078FB2068C169AD
:101EC00041F40061C1612068C16921F48061C16190
:101ED0002068C1692A6941EA0221C16184F83D6034
:101EE000002084F83C0070BD10B5040003D094F8C5
:101EF0003D0010B107E0012010BD002084F83C0037
:101F0000204600F00DF8022084F83D00211D2068D5
:101F100000F072FA012084F83D00002010BD00009E
:101F2000F0B51B4887B0016841F00401016000680A
:101F300000F0040005901648001D016841F40031CE
:101F40000160006800F40030059011481038016805
:101F500041F0020101600068022400F002000590D7
:101F6000802001268DE8510003250A4FCDE9035456
:101F700069463846FFF71EFAE001CDE90004CDE9D5
:101F80000265694604953846FFF714FA07B0F0BDBC
:101F900040380240000402407047000010B504467B
:101FA0000068012200F074FA09492068884203D1D0
:101FB000416C41F4004141642068816801F00701EF
:101FC000062903D0016841F001010160002010BD25
:101FD0000000014070B52449884244D10520FEF735
:101FE000F1FF00EE100A214C2149B8EE400AD4ED71
:101FF000010A4FF4597370EE800AC4ED010A628839
:1020000021F81200521C90B2608098422BD100201F
:102010009FED181A80EE810A84ED010A31F9102033
:1020200000EE902AF8EEE00A70EEC00AFDEEE00A3B
:1020300010EE902A21F81020401C80B29842EDD377
:1020400060780025012802D0022804D004E04FF473
:10205000967001F0CDFE6570012020709FED060A9C
:10206000658084ED010A70BD20540020040000202A
:10207000204C00200000594400000000704770B55B
:10208000040004D094F83900002510B106E00120C6
:1020900070BD84F83850204600F022F8242084F8DF
:1020A00039002068C16821F40051C160204600F069
:1020B000ABFA2068016921F490410161206841690F
:1020C00021F02A0141612068C16841F40051C160DA
:1020D000E563202084F8390084F83A00002070BDC0
:1020E00010B586B0044614216846FEF740FC14493A
:1020F0002068884221D113480021026842F0100272
:102100000260006800F0100005900E481438026864
:1021100042F001020260006800F0010005904FF4F7
:10212000C06000900220CDE9010103200390072048
:10213000049069460448FFF73DF906B010BD000061
:10214000001001404438024000000240FEE7000059
:10215000144810B5016886B041F0020101600068C2
:10216000114C00F0020005904FF4607000900120C7
:10217000019002900320039069462046FFF71AF968
:10218000002280212046FFF7DFF90022A11520461A
:10219000FFF7DAF9002261152046FFF7D5F906B0FE
:1021A00010BD00003038024000040240074910B55D
:1021B000054808600846FFF7D7F8002803D0BDE8B7
:1021C0001040FEF7FEBE10BD00300240804B0020E4
:1021D000094808B5016841F080010160016801F01B
:1021E00080010091016841F001010160006800F088
:1021F0000100009008BD0000303802400C4810B5C6
:102200000A4901604FF4E1314160002181600C22F4
:10221000C160C0E904128161C161FFF730FF00288D
:1022200003D0BDE81040FEF7CCBE10BD0010014049
:10223000402B0120014800F099BE0000B8A3002007
:102240000C480B4901604FF48031416000218160EE
:10225000C1600161416101760122C261064A80F8D4
:102260002010C0E90912C16280F83010FEF77BBF70
:1022700000200140D84B00200100000FFEE770470E
:102280007047704770B5214C92B00025266846F023
:1022900080562660246804F0805411941C4C2668F3
:1022A00046F44046266024680DF1240C04F44044B2
:1022B00011940124009424040194022406948CE8CF
:1022C0000D006605CDE907616846FFF7D5FA00B154
:1022D000FEE70CA90F2081E831004FF4A0500F90C9
:1022E0004FF48050109005210CA8FFF7D9F900B1E8
:1022F000FEE7FFF72FF941F20101884204D10548BA
:10230000016841F48071016012B070BD4038024034
:1023100000700040003C0240FFF728B90548016802
:1023200041F47001016003494FF00060803908609A
:102330007047000088ED00E070B505460E4A0D4874
:10234000002482E8330010461461FFF7CDFD0A48EF
:1023500060214030002201606908C0E90114014693
:102360004038FFF759FDBDE8704000210248FFF7F3
:1023700015BE000000440140BC5400200148FFF796
:1023800097BC000020540020094A10B5074BC2E951
:1023900000310021C2E9021010461161FFF73CFC38
:1023A000BDE810400248FFF771BC00000004004087
:1023B0002054002070B505460E4A0D48002482E8DE
:1023C000330010461461FFF78FFD0A48602140304A
:1023D000042201606908C0E9011401464038FFF792
:1023E0001BFDBDE8704004210248FFF7D7BD000087
:1023F0000008004060540020F0B502681D4B1E4CE0
:102400009F031E4D1E4E984207D0B84205D0A042F1
:1024100003D0A84201D0B04204D122F0700C4A6827
:1024200042EA0C02984210D0B8420ED0A0420CD022
:10243000A8420AD0B04208D0124CA04205D0124C9B
:10244000A04202D0114CA04203D122F44074CA68C9
:1024500022434C6922F08002224302608A68C262F1
:102460000A688262984201D10969016301214161D0
:10247000F0BD0000000001400004004000080040E2
:10248000000C004000400140004401400048014071
:1024900010B501F01F030121046A99408C430462C6
:1024A000016A9A401143016210BD000030B5026A12
:1024B00022F001020262026A4368846924F0730513
:1024C0000C682C4322F002058A682A430A4DA84270
:1024D0000BD122F00805CA6823F440732A434D69E2
:1024E00022F004021D438B692B43436084614968D9
:1024F0004163026230BD00000000014030B5026A55
:1025000022F010020262026A436884690D6824F4B2
:10251000E64444EA05248D6822F0200242EA0512CE
:102520000B4DA8420ED1CD6822F0800242EA05127E
:102530004D6923F4406343EA85038D6922F040022C
:1025400043EA85034360846149688163026230BD68
:102550000000014030B5026A22F480720262036A10
:102560004268C46923F4007324F073050C682C439B
:102570008D6843EA05230C4DA8420ED1CD6823F4A3
:10258000006343EA05234D6922F4405242EA0512F2
:102590008D6923F4806342EA05124260C461496890
:1025A000C163036230BD00000000014030B5026A23
:1025B00022F480520262046A4268C3690D6823F4FF
:1025C000E64343EA05238D6824F4005444EA0534C5
:1025D000064DA84204D14D6922F4804242EA851298
:1025E0004260C36149680164046230BD000001407B
:1025F0000149086070470000344401400149086007
:1026000070470000380800402DE9F041044600689A
:102610000169E26821F44051114301612169A06818
:10262000E26908436169114308432168CA6849F2B5
:102630000C639A430243CA6020684169A26921F48D
:10264000407111434161E069192764253226B0F5D4
:10265000004F354A354920684FF0000806D08842BF
:1026600001D0904236D1FFF7C5F835E0884201D05D
:10267000904202D1FFF7BEF801E0FFF7ABF86168C6
:102680004A18A0FB070148EB0803FEF726F90146AC
:10269000B0FBF5F00201B1FBF5F06FF01803584301
:1026A00001EB800006EBC000B0FBF5F000F0F80095
:1026B00002EB4002B1FBF5F0584301EB800006EB62
:1026C000C000B0FBF5F000F00700216810448860FE
:1026D000BDE8F081FFF77EF861688B0F8A00A0FBF0
:1026E0000701FEF7FAF80146B0FBF5F06FF01802AB
:1026F000504301EB800006EB0010B0FBF5F000F05A
:10270000F002B1FBF5F002EB0012B1FBF5F06FF057
:102710001803584301EB800006EB0010B0FBF5F006
:1027200000F00F00D1E7000000140140001001404C
:10273000FEE74100080218BF04200A0E18BF40F04F
:1027400001004FF07F4232EA010108BF40F0020071
:10275000012808BF052070470907090E002804DB7F
:1027600000F1E02080F80014704700F00F0000F145
:10277000E02080F8141D70479FED3C0A63E000BF25
:1027800092ED003A91ED004AD2ED012AD1ED013AE5
:1027900004EE030A92ED022A91ED021AD2ED030A29
:1027A000D1ED031A91ED044A03EEA20AD2ED043AE8
:1027B00092ED053AD1ED052A01EE020A92ED062AC4
:1027C00092ED071A01EEA00AD1ED061AD1ED070A23
:1027D00004EE230AD2ED083A91ED084A02EE830A8C
:1027E000D2ED092A91ED093A01EE820A92ED0A2A08
:1027F000D1ED0A1A00EE810A92ED0B1AD1ED0B0A07
:1028000004EE230A91ED0C4AD1ED0D3A03EE220AB3
:1028100092ED0C3AD2ED0D2A01EE820A92ED0E2ACB
:10282000D1ED0F1A00EE810A91ED0E1AD2ED0F0ACA
:1028300040314032103B04EE030A03EEA20A01EEDF
:10284000020A01EEA00A102B9AD206E0F1EC010A6E
:102850005B1EB2EC011A00EE810A002BF6D1D0ED1E
:10286000000A30EE800A80ED000A70470000000088
:1028700030B528B1144C031F002021680A4605E03A
:10288000084630BD9A4203D810465268002AF9D152
:10289000002800D041680BD00468A3EB0005A542D6
:1028A00004D11B681C440346046002E0436000E05E
:1028B00023603AB11C68D51AA54203D115682C448F
:1028C0001C6052685A6030BDCC4B002010B510EE31
:1028D000104A4FF019406849002200EB44002DEDEA
:1028E000028B884257D8DFED650A14F0004F60EE86
:1028F000200A14BFBEEE001AB6EE001A71EE200ACE
:10290000FDEEE00A10EE900A00EE900AF8EEE00A02
:102910009FED5B1A00EEC10A9FED5A1A00EEC10A44
:10292000DFED590A9FED591A00EE201ADFED580A23
:1029300040EE010A9FED571A574B00F0030100EEDD
:10294000201A21EE000A7B4403EB8103D3ED000A39
:10295000524B7B4403EB810393ED001A504B41EE45
:10296000000A7B4403EB8101801091ED000A70EEB8
:10297000800AEABB00EE100AB8EEC01ADFED491A71
:102980009FED490ABDEC028B01EE210ABCEEC00AA4
:1029900020EE200A10BD4FF0FF40A0431BD04FF0A7
:1029A000CE40B0EB440F82BFB7EE000ABDEC028B05
:1029B00010BD3E48B0EB440F28BF012293D2022045
:1029C00000F036F914F0004F15D0BDEC028BBDE8D5
:1029D000104000F015B914F5000F02BF9FED340A46
:1029E000BDEC028B10BDBDEC028BBDE8104000E0D9
:1029F00007E000F0F9B8BDEC028BBDE8104000F034
:102A0000F7B800EBD07359104FF07E5202EBC15172
:102A100000EE101AA0EB630002EBC05060EE200A3B
:102A200000EE100A20EE208A18EE100A88B118EE87
:102A3000100AB0F1FF4F15D018EE100AFFF779FE1B
:102A4000042808BF00F0DCF8B0EE480ABDEC028BA9
:102A500010BD022000F0ECF8BDEC028BBDE8104088
:102A600000F0CEB8022000F0E3F8BDEC028BBDE828
:102A7000104000F0BDB800000000501E3BAAB84056
:102A80000070313EF4FD053712BB2A3D12BB2A3ED1
:102A9000FFFFFF3EFFFF7F3F9A2404009E240400B7
:102AA0006E2404000000004B00007E4E0000A08554
:102AB000000000000000000010B52DED020B2DED10
:102AC000088B84B09DED0C0B51EC100BFEF7B4F8A5
:102AD00041EC180B9DED0C0B53EC182B51EC100B2B
:102AE000FEF7A4F841EC190B0D989FED290B10F09F
:102AF000004F53EC102B51EC190B9FED21AB9FEDC8
:102B000022BB0ED0FEF7DCF80ED953EC1B2B51EC98
:102B1000190BFEF7EDF81CD214E000BF41EC180BC6
:102B200017E0FEF7CDF806D253EC1A2B51EC180B38
:102B3000FEF77CF8F2E753EC1B2B51EC190BFEF778
:102B4000D7F806D853EC1A2B51EC180BFDF7CDFF34
:102B5000E4E78DED028B9DED0C0B18EE901A10EE54
:102B6000900A8DED000B61F31E0003909DED020BAA
:102B700004B0BDEC088B02B010BD000000000000E6
:102B8000000000000000F03F000000000000E03FF7
:102B9000000000000000E0BF2DE9F04782460F4C26
:102BA00010480D4E0E4F001B4FF0000820F0070597
:102BB0004FF0010900221146504601F0E9FF0028BC
:102BC00002D1306810B10020BDE8F0873C60C4E954
:102BD0000058C6F80090EDE7D04B0020842B012070
:102BE000CC4B00208053012030EE000A70470000DB
:102BF0009FED020A20EE000A7047000000000070FE
:102C00009FED020A20EE000A70470000000000104D
:102C100002E008C8121F08C1002AFAD170477047A5
:102C2000002001E001C1121F002AFBD17047000003
:102C30000149086070470000D44B00202DE9FE4F89
:102C400092460F46040004D0B4F8480020B1E56C69
:102C500003E00020BDE8FE8F00250020E082A08276
:102C6000207BC043800702D030221121DDE0DFB39A
:102C7000D5B32888C0B3B7F80490002659E0A868F7
:102C8000006800EB0610019055D068B306EB4600D3
:102C9000029007EBC00000900389DBF81820C18880
:102CA0009E46C0684B43D2F804C04343634519D8DD
:102CB000DBF80C30D3F80C80884513D1D3F80880AA
:102CC000F0450FD1596881420CD16146106800F07F
:102CD0009DF9DBF80C10DBF81420C968D268514369
:102CE000884204D2182200E025E012219DE0DBF8A2
:102CF0001800006800F0AAF920F07E41029857F809
:102D0000300020F07E40814201D01922EBE700988C
:102D1000006980B10098808878B14946484500D262
:102D200008468146DDE900105A4600F08EF8761C10
:102D30002DB1288804E01722D5E72122D3E700200F
:102D4000B04206D9686820B150F826B0BBF1000F38
:102D500095D1BAF1000F0AD0B4F84800012808D97B
:102D6000E56C0C3505D0288818B1002759E0012002
:102D700070E7182258E0A868006800EB07183BD0FD
:102D8000B8F1000F38D007EB47000AEBC001019003
:102D90000A89D6F818C0C8888B469646CB68424345
:102DA000DCF804105A438A42E3D8F2680092D268F1
:102DB0008242DED1009882687245DAD1009840687C
:102DC0009842D6D1DCF8000000F020F9F168726971
:102DD000C968D26851438842CBD3B069006800F01B
:102DE00035F920F07E4201985AF8300020F07E40FC
:102DF000824203D0192217E0172215E0DBF81000F9
:102E00000028F9D0BBF8040068B14946484500D213
:102E10000846814659463246404600F016F87F1C67
:102E20003DB1288806E021221321204600F01EFF34
:102E30000FE70020B84205D9686818B150F827603C
:102E4000002E98D1A4F8149091E730B5D368DC68CF
:102E50005369DB685C4384608B886343C3600C699F
:102E6000446009691944016091690B689B0007D4AB
:102E7000D1E902355B1B23448B6091694068C860CF
:102E800030BD70B50546002621E0A9688369096850
:102E900001EB06141968890005D5D4E90112986878
:102EA000FDF74CFD08E0D3E90212891A626811446B
:102EB000996080696168C160D4E90101084460607B
:102EC0002168884201D3E068081A761C60600DB161
:102ED000288800E00020B04206D96868002803D0A6
:102EE00050F826000028D0D170BD2DE9F0410546EC
:102EF00000262BE0A968096801EB061481690A68BD
:102F000092000FD5A26889686068FDF717FDD4E9C3
:102F10000110014461602068814201D3E168411AD7
:102F2000616012E0D4E901121144616022689142AB
:102F300001D3E168511A61608269D2E90237DB1B73
:102F40001944916080696168C160761C0DB1288860
:102F500000E00020B04206D96868002803D050F88D
:102F600026000028C6D1BDE8F081000010B58CB065
:102F70000446302212496846FDF7E0FC00F06AFD85
:102F8000049000210A940F4800F058FD10F0FF0F44
:102F900003D04FF0FF300CB010BD0A4C69462068DA
:102FA00000F060FD08B10020F5E7206800F058FD52
:102FB000206800F053FD00202060801EEBE7000039
:102FC00074C40308884B002070B5B8B1B1B10E4C81
:102FD00023689BB1251D0122AA80286104F11C00F1
:102FE000828001610246211D184600F056FD01282D
:102FF00007D0206800F034FD000A70BD4FF0FF30AC
:1030000070BD002070BD0000884B002099B1C0F356
:10301000C612C0F38233134403FB01F2D21D22F027
:103020000701C0F34152D140C0F34340042804D00B
:10303000082807D104E00020704701EB031101E0EC
:1030400001EB0321C91DC8087047000030B54021BD
:10305000C0F34342022A18D02E4A20F07E44A31A1D
:103060000D01944247D024DC2B4AA4EB0203944286
:1030700041D017DC402C42D0403CB4F5802438D0FD
:10308000AC423CD12449C91F39E0C0F3C051C90545
:10309000C0F3C61241EAC21100F07F02114341F4AD
:1030A00080212CE0A3F54073F93B16D00F2B26D1DD
:1030B00023E0B3F5006F14D006DCAB420FD0A3F5CC
:1030C0008063073B1BD10EE0A3F500630F3B0DD0DF
:1030D000124AD34213D1124911E012490FE01249AA
:1030E0000DE012490BE01049C91D08E00F490F31EE
:1030F00005E00F4903E0114601E00A490F3100F0F5
:1031000080420A4300F00051114300F00060084380
:1031100030BD000040008400470404000FF801FFA8
:1031200040108201400804004004840040088400EC
:103130004000040008B509A10968009148B1017870
:103140009DF80020914204D104226946FDF71AFC43
:1031500008B1002008BD012008BD000003840484DC
:103160002DE9FF4F83B0DDE91141B1FBF4FADDE950
:103170001370DDE91895DDE91668791B614302914A
:10318000DDF840E0DDF854C0411B0191ACEB0801D3
:10319000414306FB0090009103EB8001049B9E4598
:1031A00002D19FED361A01E0B7EE001A7E43664366
:1031B00002EB86024FF0000902EB840B58E0002777
:1031C00053E000BF0EEB8900002690ED000A104688
:1031D00020EE010A3CE0002325F0030C22E000BFB2
:1031E000D1ED002A90ED003A00EB840091ED012A28
:1031F00002EE830AD0ED002A00EB8400D1ED021A22
:10320000D1ED030A103102EE220A90ED002A00EB04
:1032100084001B1D01EE820AD0ED001A00EB840031
:1032200000EEA10A9C45DBDC09E000BFF1EC010ADD
:10323000D0ED001A00EB84005B1C00EEA10AAB424B
:10324000F4DB029B761C00EB8300019B01EB830106
:103250004645C0DB00987F1C01EB8001049800EB21
:10326000890009F1010980ED000A5745AAD3121D12
:103270009345A4D807B0BDE8F08F0000000000001F
:103280002DE9FF4F86B017ACDDE91EC794E8450075
:103290009CFBF0F400FB14C4041B94FBF0F5DDE987
:1032A0001C9100FB154E99FBF2F502FB1594141BC3
:1032B00094FBF2F502FB15450CEB0004641E94FB35
:1032C000F0FC09EB0204641E94FBF2F8A7EB0E0479
:1032D000DDE9143B491B1144491E91FBF2F7DDF86F
:1032E0006CA00444641E94FBF0F4CDE9008CDDF87E
:1032F00058C0B3FBFAF102FB0CF200FB1422584356
:103300005A43401ACDE90402301B48431A9A0390ED
:1033100001FB06F0D21B5043DDE9008C029008FB54
:1033200006C0BBFBFAFB099A484302EB8002079EEA
:103330001398B04202D1DFED2A0A01E0F7EE000A4D
:10334000169809EB050606FB00E05843089B4FF072
:10335000000803EB800E40463BE0002633E0139864
:10336000002500EB880090ED000A704620EE200A50
:103370001CE0002311E000BF00EB810C06E000BF61
:10338000B2EC011AF0EC011A01EE210A6045F7D304
:10339000DDF810C05B1C00EB8C00A342ECDB059B4E
:1033A0006D1C00EB8300039B02EB8302BD42E0DB5C
:1033B0000298761C02EB8002079800EB880008F167
:1033C000010880ED000A5E45C9D30EEB810E09F1BC
:1033D000010081465045C0D30AB0BDE8F08F00001F
:1033E000000000002DE9FF4F2DED020B82B0DDE95A
:1033F0001709DDE914E8119A00FB08F0504303EBCC
:10340000800A0027DDF84CB0199CA8E06342002B2D
:1034100000DC0023ABEB0405454500D34546E0182E
:103420000699504301EB800103FB02F0EB1AABEB72
:10343000030555430195A8EB0305554300950AEB99
:10344000800002FB03F5F0EE400A00267AE000233C
:1034500025F00F0C63E000BF91ED004AD0ED004A6B
:1034600091ED013A90ED011A44EE840AD1ED023A51
:10347000D0ED022A91ED032AD0ED031A91ED044A12
:1034800041EE030AD0ED044A90ED063A90ED071A9A
:1034900042EEA30AD1ED053AD1ED062A41EE820AA9
:1034A00090ED052AD1ED071A44EE840AD1ED084AC1
:1034B00090ED084A42EE230AD0ED093A91ED0A2A2E
:1034C00043EE220A91ED093AD0ED0A2A41EE210A93
:1034D00091ED0B1AD0ED0B1A44EE240A91ED0C4A33
:1034E000D0ED0C4A43EE830A91ED0D3AD0ED0D3A42
:1034F00042EE820AD0ED0E2A91ED0F2A41EE810AAA
:1035000091ED0E1AD0ED0F1A40304031103344EED9
:10351000840A43EE830A42EE810A41EE820A9C4508
:103520009ADC06E0B0EC011A5B1CF1EC011A41EEEA
:10353000210AAB42F6DB019B761C01EB8301009B69
:1035400000EB83004E4582DB05987F1CC0ED000A2E
:103550001299059800EB810005901A98044477456C
:10356000FFF454AF08B0BDE8F08F00002DE9FF4F25
:1035700093B08846DDE92E02DDE9281BDDE92A3417
:10358000DDE922755043DDE920A6A3EB0B020F9283
:10359000012901D1012805D0B14201D101285FD014
:1035A0000020CBE01698CDF840A00B902C981599F0
:1035B000584468437043CDF8348001EB8000129288
:1035C0000E90DDE9250148434FF0000900FB06F8A5
:1035D00041E000BF4FEA8800FFF7DEFA0C900020C0
:1035E0000AE00B9901EB800191ED000A0C9901EBC7
:1035F0008001401C81ED000A8045F2D80C9BBAF195
:10360000000F04D01098B0EC010A109001E09FED7B
:103610004E0A12992798CDE906B1CDE908400DF17F
:10362000900C9CE807000DF10C0C00968CE807004C
:10363000CDE90175DDE90D121398FFF7D3FE0B9963
:1036400001EB88000B900D98001D0D900C98FFF772
:103650000FF909F10109B945BCD317B0BDE8F08FE6
:1036600000202FE06142002900DC00212D9A281B58
:10367000904200D310462C9A631802FB0532159B2A
:10368000724303EB820EBAF1000201D0134600E050
:1036900043460F9A401ACDE906B2CDE90810DDE99C
:1036A0002501CDE9040103958DE8C8007246414625
:1036B000169B1398FFF754FD279808EB87080444DE
:1036C00009F10100249981468842CBD3C5E76042C5
:1036D000002800DC00202D9A291B914200D31146BE
:1036E0002C9A231802FB0532159B724303EB820EC2
:1036F000BAF1000200D142469446091A0F9ACDE968
:103700000B01CDE909B2DDE925122F98289BCDE9FF
:103710000501CDE907232E98CDF800C0CDE903506F
:10372000CDE9016772464146169B1398FFF7A8FD45
:10373000279808EB8708044409F101002499814681
:103740008842C4D389E7000000000000F0B5059D61
:1037500025F0010403EB84069FED460AEF085AE0CA
:1037600051F8044BD3ED002A04F0FF0C4FEA1C1E65
:1037700002EB8E0E0CF00F0C9EED002A02EB8C0C6F
:1037800002EE220ADCED001A93ED012AC4F3072CA5
:103790004FEA1C1E02EB8E0E01EE820A9EED001A0D
:1037A000D3ED021A0CF00F0C02EB8C0CD3ED042AB3
:1037B00001EE210ADCED000A93ED031AC4F3074C75
:1037C0004FEA1C1E02EB8E0E00EE810A9EED002ACF
:1037D0000CF00F0C02EB8C0C240EDCED001A02EE48
:1037E000220A93ED052A4FEA141C02EB8C0C04F01C
:1037F0000F049CED001A01EE820AD3ED061A02EBCB
:103800008404D4ED000A01EE210A93ED071A203357
:103810007F1E00EE810A002FA2D115E011F8014BA6
:1038200093ED001A270902EB870704F00F04D7ED88
:10383000000A02EB840400EE810AD4ED000A93ED45
:10384000011A083300EE810AB342E7D3EC0709D02E
:10385000097893ED001A090902EB8101D1ED000A04
:1038600000EE810AD0ED000A30EE800A80ED000AF9
:10387000F0BD000000000000F0B59FED380A059D86
:10388000EE0851E051F8044BD3ED002AE7B202EB09
:103890008707D7ED001AC4F3072702EB870701EE6D
:1038A000A20A97ED002AD3ED011AC4F3074702EBF1
:1038B0008707240E02EE210A97ED001AD3ED021AB3
:1038C00002EB8404D3ED042AD4ED000A01EE210AB0
:1038D00093ED031A51F8044BE7B202EB870700EEB1
:1038E000810A97ED002AC4F3072702EB8707D7ED7B
:1038F000001A02EE220A93ED052AC4F3074702EBF1
:103900008707240E97ED001A01EE820AD3ED061AFE
:1039100002EB8404D4ED000A01EE210A93ED071AAC
:103920002033761E00EE810A002EABD105F007048D
:103930000BE000BF11F8015B641E02EB8505B3ECE0
:10394000011AD5ED000A00EE810A002CF2D1D0ED6B
:10395000000A30EE800A80ED000AF0BD0000000091
:10396000F0B5042BDDE9055400EB840427D0082BC7
:1039700027D12FE000236E0812E00F783F0902EBF9
:10398000870797ED000A80ED000A11F8017B07F028
:103990000F0702EB870797ED000A80ED010A083058
:1039A0001F465B1CB742E8D3EB0708D011F8013B78
:1039B0001B0902EB830393ED000AA0EC010AA0426D
:1039C000D8D3F0BD11F8013B02EB830393ED000A5D
:1039D000A0EC010AA042F5D3F0BD10B50169044680
:1039E0008847E068A04200D1002010BD70B5856D09
:1039F000016D0446ADB1002912D061650120E26D70
:103A0000A8470220E26D616DA847606DFFF7E5FFF2
:103A1000606501460320E26DA847606D0028F0D183
:103A200070BD0029FCD06165606DFFF7D6FF606551
:103A30000028F9D170BD20EE200A70471CB5002384
:103A40000322CDE900230123014A00F037F81CBD11
:103A50003C2F0020004870479463000800F064B8D1
:103A600000F06CB82DE9F0410D46064600F074F800
:103A7000040010D0294601F001FC074605F11801A9
:103A8000204601F0B7FA00EA0704304600F0A3F838
:103A90002040BDE8F0810020FBE700F0BCB800004A
:103AA00010B518B1044A0168914200D000200446C4
:103AB000FDF76AFA204610BD0001C0A12DE9F843C8
:103AC0000546DDE9081091461A0642EA01414FF029
:103AD000000841EA00274446FDF756FA0F4E65B14B
:103AE0000F49C9F80010C5F8009000F052F938B13C
:103AF000B7F1827F06D974680CE0F069BDE8F883FD
:103B0000346807E007A0006800906846FFF712FBE2
:103B100010B9B468C5F800802046EFE7BCC40308BC
:103B20000001C0A10384048410B50446FFF7B8FF68
:103B300008B1002010BD204610BD000010B5FFF7F1
:103B4000AFFF20B1BDE81040103000F01CB90148B3
:103B5000806910BDBCC4030870B50C46FFF7A0FF18
:103B6000050004D02CB12169A06A28B10CE0002026
:103B700070BD1122102111E0208CE28B5043626A4B
:103B8000504301D0132207E059B92089E188484306
:103B9000E168484305D012221021284600F066F85B
:103BA000E5E71822214605F11800FCF7C7FE1822A8
:103BB00004F1180105F13000FCF7C0FE0320E860B5
:103BC000286D30B18560C168814202D009B10846D4
:103BD000F8E7284670BD70B5FFF762FF041E08D0F5
:103BE000207B800706D410221121204600F03EF8E9
:103BF000002070BDA06D60B1256D55B1D4E91632BD
:103C0000294600209847E868A84202D008B1054636
:103C1000F4E7012070BD70B515460E46FFF740FF72
:103C200004462A463146FFF709F800281DD0B4F8AB
:103C3000480008B1E56C00E00025012802D9E66CD7
:103C40000C360DE000260BE02846FFF71AF9204657
:103C5000FFF7CCFE3046FFF748F9E08A401CE082CF
:103C6000E08AA18A8842EFD380B270BD002802D0DA
:103C7000103000F0A5B8704702460068010A012024
:103C800004E05368491E53F8213058430029F8D105
:103C9000704730EE200A7047FFB50B681C0A0368B6
:103CA00064F31F2303604D6856682B6832689342A3
:103CB00001D0012400E000246A6873689A4201D0B0
:103CC000012200E00022AB68B768BB4201D00123AB
:103CD00000E00023ED68F668B54201D0012500E060
:103CE00000251B4E96E8C0508DE8C0504E683668DF
:103CF00001964E68D6E90076774302974968D1E984
:103D0000006789687E434E430396466884F001014C
:103D10003160019E24EA020102FB161146687160BF
:103D200022EA0301029E214003FB1611019E02FBC1
:103D300006114668B16023EA05011140039A21404B
:103D400005FB1211029A406803FB0211C160FFBD1E
:103D5000C44D040830B50B681C0A036864F31F23C4
:103D600003601B0A0CE04C685B1E54F82350546837
:103D700054F82340A54200D92C46456845F8234015
:103D8000002BF0D130BD00220168027002600846AD
:103D900070470120704718B1806903C8FFF736B932
:103DA0000120704710B180698068704709B1886848
:103DB000704700207047002801D040698068704734
:103DC000037813F0FF0F01D00020704701700168E5
:103DD00062F31F21016001207047000010B5044606
:103DE0000420FDF7F7FE0148046010BD000000202C
:103DF00070B5054600244FF47A7603E0304600F0B3
:103E000005F8641CAC42F9D370BD000070B54FF0EA
:103E1000E024002265690949A36909684843A1694A
:103E20009942FCD002D2A3EB010302E0A5EB01060C
:103E300033441A440B468242F1D370BD0000002087
:103E40002DE9F047ADF5825D07466C464FF4006101
:103E50002046FCF78CFD4FF400760DF540653146A9
:103E60002846FCF784FD4FF480780DF58059012336
:103E7000002241464846FCF7ABFB32460DF5606632
:103E800026493046FCF75AFD254BDFED260A002077
:103E900007EB870200EB420133F9111000EE101A14
:103EA00006EB8001B8EEC00A91ED001A20EE010A7F
:103EB000BDEEC00A10EE101A09B200EE101A25F875
:103EC000101004EBC001B8EEC00A401CC0B281EC77
:103ED000020A8028DED3144800210068416221468E
:103EE0004846FCF757FB0DF500654246294620463B
:103EF000FCF770F90D4A002005EB800191ED0A0AEC
:103F0000BCEEC00A10EE101A22F81010401CC0B20D
:103F10003228F1D30DF5825DBDE8F08774C2030845
:103F2000204C002000000000205400205474002089
:103F30002DE9F04F044640699DB002880AB14168FE
:103F400000E00021496829B10AB1416800E0002180
:103F500049680968012A02D943680C3300E000234C
:103F60005B6843B1012A02D940680C3000E00020B0
:103F70004068006800E00020C368DA681792CA68E9
:103F8000D56811959B68189393680593D2F80490AF
:103F9000A2690992E2690892226A1492626A1292F4
:103FA000E26AD2E900321B928969C3F1000A89688A
:103FB0001591806980680790002069E0CAF10000CF
:103FC000002800DC00205044069011980899A0EBCE
:103FD0000A00884200D3084600EB0A081B984542B5
:103FE00000204DE06842002800DC00200599099A75
:103FF000491B2844914200D31146069E2944421A87
:10400000A6EB08035A430F92059B06FB0302081A0E
:10401000199000FB09F01390159802FB09F203FBBD
:1040200009F3169300EB820B94F83000002718B1C7
:10403000DDE90810484300E00F981C900120069E1F
:1040400014E019990F440F99B94201D11C9900E06D
:104050000021CDE900104B465946139A079801F00C
:10406000D1FE169900200BEB810B761C4645E8DB50
:10407000079800EB89000790149805440D98401CA0
:1040800018990D908842ADD312990E988A44401C1D
:1040900017990E90884291D31DB0BDE8F08F0000B3
:1040A0002DE9F04F04464069ADB0018809B142687E
:1040B00000E0002252682AB109B1426800E0002203
:1040C00052681268012902D943680C3300E00023CA
:1040D0005B6843B1012902D943680C3300E0002337
:1040E0005B681E6800E00026022902D94368183385
:1040F00000E000235B683BB1022902D94368183312
:1041000000E000235B681B68022998460BD94368CE
:1041100013F1180F07D033F8185F012D03D95B682E
:1041200013B15B6800E00023022902D94568183505
:1041300000E000256D6845B1022902D940681830B9
:1041400000E000204068806800E000200090D06817
:1041500041681791F1684D681195CD681D95D1F8AA
:104160000890C168259180681590A08C80B221903C
:10417000208D80B22490A06B018889B2079180883D
:1041800080B22990A08D80B22890208E80B2279096
:10419000D8F80C00D0E901ABA06922909069806842
:1041A0002090D8F818008068039013B1986980684F
:1041B00000E000201890B069E16987680098FFF777
:1041C000F1FD05461E900098FFF7F5FD239000983D
:1041D000FFF7E1FD2B90206A00B955482799ABF114
:1041E00001021690491E02FB01B02899AAF10102B2
:1041F0002A90491E02FB01A02690D8F81830002012
:104200001968C1F3C61CC1F341522CFA02FCC1F378
:104210004341042901D008292DD1DA685AB36169D4
:104220000C88032C04D9D1F8048008F1240801E09B
:104230004FF00008D8F80480B8F1000F0BD0032C21
:1042400002D94868243000E000204068006810B1BE
:104250008169896800E0002180690C4617994068EF
:10426000CDE90010996863462046FFF779FB211ECF
:1042700001D0084600E003981F900798C0F100089D
:1042800000204CE029984142C8F10000002800DCE1
:104290000020864625982A9AA0EB0800904200D379
:1042A0001046279A289B12B21BB2269CCDE90E32EB
:1042B000CDE90C84229BCDE9083ECDE90A01219885
:1042C000CDE9049ACDE906B0DDE91710159B119AE6
:1042D0008DE80F00DDE91F3239460020FFF746F96F
:1042E000002413E08760B069DDF858C02B46014612
:1042F000119AE047119807EB8007239805441E9810
:10430000291A2B98814200DB1E9D641CB0694C4524
:10431000E8D3C168816024991C988844401C0146F8
:104320001C901D988142ADD32DB0BDE8F08F0000E8
:104330008D4B00082DE9F04F04464069BFB001885D
:1043400009B1426800E0002252682AB109B142680E
:1043500000E0002252681268012902D943680C3338
:1043600000E000235B6843B1012902D943680C33A4
:1043700000E000235B681F6800E00027022902D9E3
:104380004368183300E000235B6843B1022902D977
:104390004368183300E000235B681D6800E00025D7
:1043A00002290BD9436813F1180F07D033F8186F9F
:1043B000012E03D95B6813B15B6800E0002302297A
:1043C00002D94668183600E00026766846B1022910
:1043D00002D94068183000E000204068806800E0A2
:1043E00000208046D06841683091F968D1F804B067
:1043F000CE68179689683391C1682F9180682490A0
:10440000A08C80B21E90208D80B23290A06B01886B
:1044100089B20891818889B23791018980891FFA10
:1044200081FA1FFA80F9A0693590A08D80B22E9094
:10443000208E80B21990E9684868209088681F90A3
:10444000E06B3990606C3890A06C1B90206D016817
:104450000A9140683C90906980682390A8698068C0
:10446000079013B19869806800E0002031904046C1
:10447000E169FFF797FC064618904046FFF79BFC62
:104480001A904046FFF787FC3D90206A00B9BE486D
:104490001690606D2C901F981999421E491E02FBC0
:1044A000010020992E9A2790481E521E00FB0210F0
:1044B00024992590091A3798084400EB09011E98A1
:1044C000B1FBF0F0206C13902F992798081A0899E7
:1044D000014432985144B1FBF0F0401C3A90D5F8B9
:1044E00018C00020DCF80010C1F3C613C1F341521C
:1044F000D340C1F34341042901D008292AD1DCF873
:104500000C203AB361690D88032D04D9D1F80480D9
:1045100008F1240801E04FF00008D8F80480B8F151
:10452000000F0BD0032D02D94868243000E0002092
:104530004068406810B181698D6800E0002580699D
:1045400041683098CDE900012846DCF80810FFF7F3
:1045500007FA05B9079D2295B8693B900A98002192
:1045600000B2824636911591269060690188032930
:1045700002D94268243200E00022526842B1032985
:1045800002D94068243000E000204068056800E05F
:104590000025E868D0F80890A86984680898404227
:1045A000E2E03A98002859DD379843421D9840428E
:1045B000002800DC00201D9A2F99891A279A914221
:1045C00000D31146199ADDF874C017B22E9ADDF89F
:1045D000948012B2CDE90E27CDE90CC8359A09AF07
:1045E000089287E80B001EAF97E80E00CDE9062180
:1045F000CDE90493DDE930022499CDE90020CDE92D
:1046000002B1DDE9223221460020FEF7AFFF00278C
:104610001BE08460A869DDF858C033465A4601465D
:10462000E0471A9806441898311A3D98814200DBF9
:10463000189EA86904EB8B04C168406801EB8001F7
:10464000A14201D8A4EB80047F1CA8694F45E0D3A8
:10465000C16881600AF101000FFA80FA3A98401EA1
:104660003A903DD5A9690BFB09F000FB0AF0CB6835
:10467000A4EB80002246834202D9496800EB810006
:10468000834210D2139B1BB29A4505D10BE000BFA9
:10469000B0EC010AA4EC010AA969CB68496803EBF4
:1046A00081018142F4D81398A0EB0A01369808449E
:1046B00000B236901B9850440FFA80FA1B9800FB0A
:1046C00009F000FB0BF002EB8004A869C2684168A6
:1046D00002EB810002E000BFA4EB8104A042FBD901
:1046E000139882453DD31B983B99AAEB00000FFA23
:1046F00080FA159805AF401C15903398012382B2BB
:104700001B98089180B287E80D00269938988AB2E4
:104710003C99139B80B2CDE9032089B29BB2CDE9CD
:1047200001313998139980B2009036982C9F081A5D
:1047300082B21FFA8BF31FFA89F1A869B8473B9838
:10474000339982680BFB01F002EB80013B9881609A
:104750001B98269900B2081A002800DC002000B23D
:10476000269032991D9808441D90179915988842F3
:10477000FFF417AFA869C16881603B98C168816088
:104780003FB0BDE8F08F00008D4B00082DE9F04FE1
:104790002DED028B91B04069018809B1426800E0BB
:1047A000002252682AB109B1426800E00022526832
:1047B0001268012902D943680C3300E000235B68CA
:1047C0003BB1012902D943680C3300E000235B6848
:1047D0001B68022902D94468183400E00024646888
:1047E0003CB1022902D94468183400E0002464680E
:1047F00024680229A0460BD9406810F1180F07D091
:1048000030F8181F012903D9406810B1406800E052
:1048100000200E90D068002440680590D968486850
:104820000990D1E9020100FB01FBD8F818100868D3
:104830000694C0F3C614C0F34155EC40C0F34340A6
:104840000F94042801D0082801D1C8680690D8F830
:1048500014004FF000099FED308AD0F804A0986949
:104860008468906980680390099804EB80074BE0A6
:10487000D8F8180086680E9810B18069856800E045
:1048800000250698C0B91DE015B1B5EC010A01E09C
:10489000B0EE480A8DED080A0F98039B042805988E
:1048A0000090069A314608A809D0FEF7E5FF9DED75
:1048B000080A5644A4EC010ABC42E5D31AE0FEF70C
:1048C00045FFF4E70398089012E015B1B5EC010A32
:1048D00001E0B0EE480A8DED000A31466846059BBE
:1048E000089AFDF749FF9DED000A5644A4EC010A21
:1048F000BC42EAD30599039809F1010900EB810054
:104900000390099807EB8007D945B1D311B0BDECEE
:10491000028BBDE8F08F0000000000002DE9F04F91
:10492000416993B00B880BB14A6800E000225268DD
:1049300032B10BB14A6800E000225268146800E00E
:1049400000240BB14A6800E0002252682AB10BB182
:104950004A6800E0002252685268012B02D94D6873
:104960000C3500E000256D6845B1012B02D949687E
:104970000C3100E000214968096800E00021D0F80E
:1049800018B0A06904F1080902F108088568906967
:104990000DF1380A8468886987683D48816802910A
:1049A00000F1A001B1E84C108AE84C100EAA039265
:1049B00002690092B1E84C100DF1280A8AE84C1007
:1049C0000AAA0192806904900FC906AE86E80F001A
:1049D00006A805904246494602A8FFF7BBF902AA7D
:1049E00049466846FFF758F902AA414604A8FFF76E
:1049F00053F9002043E0002032E0002021E00026AF
:104A000011E000BFD4ED000A95ED000A584680473A
:104A1000A7EC010A0198761C006805EB8005059853
:104A2000006804EB800403980068B042EAD801985B
:104A3000406805EB80050598406804EB800408F1A8
:104A400001008046039841684145D8D801988068A4
:104A500005EB80050598806804EB800409F10100EE
:104A60008146039881684945C7D80198C06805EB1D
:104A700080050598C06804EB80040AF101008246B5
:104A80000398C1685145B6D813B0BDE8F08F000057
:104A9000DCC4030870B54069018809B1426800E0D0
:104AA0000022526832B109B1426800E00022526827
:104AB000146800E00024012902D942680C3200E0A9
:104AC0000022526842B1012902D940680C3000E04E
:104AD00000204068056800E0002504F10800FFF7A9
:104AE000CBF80246A169A869BDE87040002300F038
:104AF0007DBF70B505464069018809B1426800E094
:104B00000022526832B109B1426800E000225268C6
:104B1000146800E00024012902D942680C3200E048
:104B20000022526842B1012902D940680C3000E0ED
:104B300000204068066800E00026A86978B1406857
:104B4000012804F1080016D0FFF796F80246A8697C
:104B5000A1698368B069BDE8704000F0A3BF04F1AB
:104B60000800FFF789F80246A169B069BDE8704006
:104B7000002300F077BFFFF77FF80246A869A1691C
:104B80008368B069BDE8704000F0ECBF704700007A
:104B90002DE9F0410B3020F00706104D19E0206898
:104BA000B04215D3B0420AD9871B201DD4F8048027
:104BB000FBF7C4FEA019C0E90078286004E0606833
:104BC0002860201DFBF7BAFE201D2660BDE8F0819D
:104BD000251D2C68002CE2D10020F7E7CC4B0020EB
:104BE000FCF7CCFC072302221921C820FDF74AFB61
:104BF0006420FFF7F3F8FDF723FBFDF7A9FA312155
:104C000040F2E730FDF7C0FB40F2F31431212046BB
:104C1000FDF792FB0020FDF7EBFC31212046FDF76C
:104C2000C9FB0020FDF7EAFCFDF7D2FAFDF7BEFA5A
:104C3000FDF7E4FAFDF7FEFA044C00252078012880
:104C4000FCD100F005F82570F8E700000400002012
:104C50002DE9F05FDE4EDF4C00252846FFF7F0F827
:104C60005FF00001C1EB011036F8112000EB80006D
:104C700004EB4000491CC9B220F815203229F1D3B9
:104C80006D1CEDB24B2DE8D3B4F9000000210346B2
:104C90005FF00002C2EB021505EB850504EB45054C
:104CA00035F811609E4201DD35F91130864201DA96
:104CB00035F91100521CD2B2322AEBD3491CC9B2C9
:104CC0004B29E5D3191A0DB200229FEDC30A00212A
:104CD000C1EB011303EB830304EB430301EE105A12
:104CE00033F81260491C361A00EE906AF8EEC11AC9
:104CF000C9B2F8EEE00A322960EE800A80EEA11A0D
:104D0000FCEEC10A10EE906A23F81260E0D3521C48
:104D1000D2B24B2ADBD3AE4D00216435C1EB011278
:104D200002EB820204EB42030020C1EB011200BF40
:104D300033F8106000EE106A00EB820605EB860681
:104D4000B8EE400A401CC0B286ED000A3C28EFD302
:104D5000491CC9B23229E1D39D48A0496430FEF70D
:104D600033F90020C0EB001202EB82020F2104EBAA
:104D70004206C0EB001300BF36F8112000EE102AE7
:104D800001EB830205EB8202B8EE400A491CC9B26E
:104D900002ED0F0A4B29EFD3401CC0B23228E1D3F9
:104DA0008E498B4810316430FEF70EF98C4C8B49DC
:104DB0000025677901268B488B4B4FF0320A04F1AE
:104DC0000C0B4FF0640E01F11002012F1ED04F6842
:104DD000874202DD576887427DDC8F68874202DDAB
:104DE0009768874277DCCF68874202DDD7688742C1
:104DF00071DCA078012807D1E078401CC0B2E070D7
:104E0000052801D3E570A570BDE8F09FD1F804C076
:104E1000844502DD5768874222DC8F68874202DDC5
:104E2000976887421CDCCF68874202DDD7688742DB
:104E300016DC207901280AD00228E5D12089401CFF
:104E400080B220810A28DFD925712581DCE72089FD
:104E5000401C80B220810528D6D325812571D3E757
:104E600094F80480DFF88491B8F1000F56D002273F
:104E700084450CDDD2F804C0844508DD01F052F809
:104E8000FCF748F85A482771A6710670BCE78E688F
:104E90004E450BDD96684E4508DD022000F0F0FF20
:104EA000FCF74CF8524827710770ADE7C868984284
:104EB000AADDD0689842A7DDB8F10A0F2CD0F046E1
:104EC00095FBF8F065818BF800A05E468BF801A099
:104ED000FBF765FD00E037E041EC100BFDF7ECFD62
:104EE00051EC100BFBF76CFDFDF788FB70786189C6
:104EF00010FB01F191FBF8F0FBF751FD41EC100BB9
:104F0000FDF7DAFD51EC100BFBF75AFDFDF770FBD6
:104F1000A5706571FBF7E8FF277175E7844502DD31
:104F20005768874205DC8F684F4504DD97684F4519
:104F300001DD267168E7C868984287DDD06898422D
:104F400084DD2671A5700DE0C868984287DDD068C1
:104F5000984284DDA078022898D2401CC0B2A0708C
:104F6000022803D2BDE8F05FFBF7BEBFFA206081E4
:104F700043F2D401F04691FBF8F08BF800A05F46B5
:104F80008BF801A0FBF70BFD41EC100BFDF794FD36
:104F900051EC100BFBF714FDFDF730FB78786189BD
:104FA00010FB01F191FBF8F0FBF7F9FC41EC100B61
:104FB000FDF782FD51EC100BFBF702FDFDF718FB2E
:104FC0006671FBF791FFE570A5700A2020711BE761
:104FD000547400200857002000007F4398A300204D
:104FE000704B0020A4707D3F6666663F3333733F8D
:104FF00005000020F0B508699D4AC01C20F00300A0
:1050000000F570710E46916011460024CE6001F5E6
:10501000A26102F5A4628C60CC6000F53A719160E7
:10502000D16002F11001934B8860C86044F2506176
:105030004218904920338A60CA6010318860C86085
:1050400000F118019960D96010339860D86010336E
:105050009960D96010339860D86010339960D96036
:1050600003F110018A60CA60103103F130028860D8
:10507000C86043F6F04101449160D16002F1100133
:1050800050338860C86000F5E0610A4699601946AF
:105090001033CA6000F5C4519960D96003F1100162
:1050A0008A60CA6000F5606103F12002C03391603C
:1050B000D160103200F5A8519160D16002F1100169
:1050C00020328860C86000F5A0610D4691601146ED
:1050D0001032CD6000F5AA619160D160103200F508
:1050E000C0679560D56010329160D16010329560D4
:1050F000D56010329160D16002F110018860C86003
:1051000000F540710A46996019461033CA6000F5EF
:1051100090519960D96003F1100120338A60CA6010
:1051200000F57C719960D96010339A60DA601033B1
:105130009960D96003F1100120338A60CA6000F5DC
:1051400004519960D96003F110018A60CA6010317E
:1051500030338F60CF6000F510619960D960DFF85F
:1051600018C100F5C053CCF80830CCF80C300CF165
:1051700010030CF1200C9860D86000F1F003CCF81B
:105180000830CCF80C300CF1100CCCF80800CCF83E
:105190000C000CF1100CCCF80830CCF80C300CF1F1
:1051A000100CCCF80800CCF80C000CF1100CCCF86A
:1051B0000810CCF80C100CF110018860C860103198
:1051C0008A60CA6010310CF160028F60CF601031CC
:1051D0008860C86010318E60CE6000F59661916085
:1051E000D16010329660D66010329160D16010327A
:1051F0009660D66010320CF1C0069160D16002F169
:1052000010018860C86000F5A071C6E9021110366F
:105210000A46B560F56006F11005A960E960103531
:10522000F031A960E9601035AA60EA601035A96024
:10523000E960103500F50C61AA60EA601035A960DC
:10524000E960103500F52071AA60EA6005F11002EE
:105250009160D16002F110018860C86001F1100016
:105260008360C36010308460C4600120F0BD000022
:10527000DC2500201C2B00204C2D00200869FE4955
:10528000FD4A096841F080411160FC490144916088
:10529000D16002F110011032096841F080411160C3
:1052A000F74901449160D16002F1100110320968A0
:1052B00041F080411160F34901449160D16002F1F5
:1052C00010011032096841F080411160EE4901443B
:1052D0009160D16002F110011032096841F0804103
:1052E000116000F539319160D16002F11001103286
:1052F000096841F080411160E44901449160D16046
:1053000002F110011032096841F08041116000F58E
:105310003431F0319160D16002F11001103209682E
:1053200041F080411160DA4901449160D16002F19D
:105330001001096841F0804110321160D449F03900
:1053400001449160D16002F110011032096841F00E
:1053500080411160CF4901449160D16002F1100198
:105360001032096841F080411160CA49F0390144A6
:105370009160D16002F110011032096841F0804162
:105380001160C54901449160D16002F110011032F1
:10539000096841F080411160BF49F03901449160D2
:1053A000D16002F110011032096841F080411160B2
:1053B000BA4901449160D16002F1100110320968CC
:1053C00041F080411160B549F03901449160D160EC
:1053D00002F110011032096841F080411160B049BA
:1053E00001449160D16002F110010968103241F06E
:1053F00080411160AA49503901449160D16002F1A5
:1054000010011032096841F080411160A549014442
:105410009160D16002F110011032096841F08041C1
:105420001160A049F03901449160D16002F110018E
:105430001032096841F0804111609B49014491603C
:10544000D16002F110011032096841F08041116011
:105450009549F03901449160D16002F11001103298
:10546000096841F080411160904901449160D16028
:1054700002F110011032096841F0804111608B493E
:10548000F03901449160D16002F1100110320968D5
:1054900041F080411160864901449160D16002F180
:1054A00010011032096841F0804111608049F039E3
:1054B00001449160D16002F110011032096841F09D
:1054C000804111607B4901449160D16002F110017B
:1054D0000A6842F080420A60764A303A02448A60A2
:1054E000CA6010310A6842F080420A60724A02447F
:1054F0008A60CA6010310A6842F080420A606E4ACF
:10550000F03A02448A60CA6010310A6842F0804270
:105510000A606A4A02448A60CA6001F11002116896
:1055200041F08041116000F5983130319160D160D7
:1055300002F110010A6842F080420A604FF2F072F4
:1055400002448A60CA6010310A6842F080420A60F0
:1055500000F577428A60CA6010310A6842F08042E2
:105560000A604DF6907202448A60CA6010310A687F
:1055700042F080420A604DF6A06202448A60CA602E
:1055800010314F4A096841F0804111604DF260319D
:1055900001449160D16002F110011032096841F0BC
:1055A000804111604DF2303101449160D16002F1CF
:1055B00010011032096841F0804111604CF2F07125
:1055C00001449160D16002F110011032096841F08C
:1055D0008041116000F547419160D16002F11001F6
:1055E0001032096841F08041116048F6C061014401
:1055F0009160D16002F110011032096841F08041E0
:10560000116048F6D05101449160D16002F110015F
:105610001032096841F08041116045F29051014417
:105620009160D16002F110011032096841F08041AF
:10563000116045F2A04101449160D16002F1100176
:105640001032096841F08041116043F63051014445
:105650009160D16002F110011032096841F080417F
:10566000116000F571519160D16002F110011032AA
:10567000096841F0804125E0EC250020D05E030060
:105680005057030070550300F0E4020040D10200BF
:1056900030BE020000850200D04B020070330200D1
:1056A000C01F0200B00C020080D30100509A01001C
:1056B000F0810100C0750100506A01002031010035
:1056C0001C280020116000F544519160D16002F166
:1056D00010011032096841F08041116043F2D0019D
:1056E00001449160D16002F110011032096841F06B
:1056F0008041116042F6105101449160D16002F185
:1057000010011032096841F08041116000F53351F9
:105710009160D16002F110011032096841F08041BE
:10572000116000F51A519160D16002F11001103240
:10573000096841F08041116042F23061014491609A
:10574000D16002F110011032096841F0804111600E
:1057500041F6F07101449160D16002F11001103204
:10576000096841F08041116000F5FD519160D16000
:1057700002F110011032096841F08041116041F2DC
:10578000D07101449160D16002F1100109681032BA
:1057900041F08041116000F5BC519160D16002F18F
:1057A00010011032096841F08041116000F5A851E4
:1057B0009160D16002F110011032096841F080411E
:1057C000116000F5A7519160D16002F11001103213
:1057D000096841F08041116000F593519160D160FA
:1057E00002F110011032096841F08041116041F26C
:1057F000102101449160D16002F11001103209685A
:1058000041F08041116000F574619160D16002F156
:1058100010011032096841F08041116000F56F619C
:105820009160D16002F110011032096841F08041AD
:10583000116000F547619160D16002F110011032F2
:10584000096841F08041116000F545619160D160C7
:1058500002F110011032096841F08041116000F539
:105860001D619160D1601032116841F0804111607A
:1058700000F518619160D1601032116841F08041EB
:10588000116000F5D6619160D1601032116841F06D
:105890008041116000F5CC619160D16010321168D7
:1058A00041F08041116000F590619160D16010324B
:1058B000116841F08041116000F58D619160D16007
:1058C0001032116841F08041116000F576719160ED
:1058D000D1601032116841F08041116000F57071A3
:1058E0009160D1601032116841F08041116000F583
:1058F0004C719160D1601032116841F080411160AB
:1059000000F546719160D1601032116841F080411C
:10591000116000F522719160D1601032116841F080
:105920008041116000F51C719160D16002F110019D
:105930000A6842F080420A6000F5CC728A60CA6050
:1059400010310A6842F080420A6000F5C0728A6035
:10595000CA6010310A6842F080420A6000F1F00229
:105960008A60CA6001F11002116841F08041116043
:1059700000F1D8019160D16002F110010A688860DD
:1059800042F080420A60C8600120704710B58C6800
:105990008068D3EC020A6FF0030303EB8203E21882
:1059A00018441EE092ED000AB4EEE00AF1EE10FA9F
:1059B00002DDF0EE401A01E0F0EE601AF4EEC11ADA
:1059C000F1EE10FA07D2B4EEE00AF1EE10FA04DCC0
:1059D000B0EE600A01E0B0EE410A80ED000A001F5F
:1059E000121F8B689342DDD910BD000010B56FF017
:1059F000030303EB82038C688068E21818444FF0BD
:105A00007E54DFED160AB6EE001A9FED152A20E04F
:105A1000D2ED001AB0EE410A01EEA00A10EE103AE3
:105A2000A34202DDF7EE001A01E0F0EE401AF5EEB7
:105A3000C01AF1EE10FA02D2B0EE420A05E010EE02
:105A4000103AA34201DDB7EE000A80ED000A001F04
:105A5000121F8B689342DBD910BD0000CDCC4C3EA9
:105A60000000000010B56FF0030303EB82038C68A5
:105A70008068E2181844DFED0A0A0CE092ED000A93
:105A8000B5EEC00AF1EE10FA01D2B0EE600A80ED78
:105A9000000A001F121F8B689342EFD910BD00004F
:105AA00000000000D3ED021A93ED000A93ED011AF5
:105AB0006FF00303F5EEC01A03EB82038A68806877
:105AC000F1EE10FA1A44184445D2B5EEC01AF1EEC0
:105AD00010FA10D113E000BFD2ED000AF4EEC00AB4
